:1010000000000420751300005D1300005F13000052
:10101000611300006313000065130000000000006E
:101020000000000000000000000000006713000046
:1010300069130000000000006B1300006D13000036
:101040006F1300006F1300006F1300006F13000098
:101050006F1300006F1300006F1300006F13000088
:101060006F1300006F1300006F1300006F13000078
:101070006F1300006F1300006F1300006F13000068
:101080006F1300006F1300006F1300006F13000058
:101090006F1300006F1300006F1300006F13000048
:1010A0006F1300006F1300006F1300006F13000038
:1010B0006F1300006F13000000000000000000002C
:1010C0006F1300006F1300006F1300006F13000018
:1010D0006F1300006F1300006F1300006F13000008
:1010E0006F1300006F1300006F130000000000007A
:1010F000000000006F130000000000006F130000EC
:1011000000000000000000000000000000000000DF
:1011100000000000000000000000000000000000CF
:1011200000000000000000000000000000000000BF
:1011300000000000000000000000000000000000AF
:10114000000000000000000000000000000000009F
:10115000000000000000000000000000000000008F
:10116000000000000000000000000000000000007F
:10117000000000000000000000000000000000006F
:10118000000000000000000000000000000000005F
:10119000000000000000000000000000000000004F
:1011A000000000000000000000000000000000003F
:1011B000000000000000000000000000000000002F
:1011C000000000000000000000000000000000001F
:1011D000000000000000000000000000000000000F
:1011E00000000000000000000000000000000000FF
:1011F00000000000000000000000000000000000EF
:10120000354936480A1A02D0072291438D4634499F
:1012100034480A1A06D00722914381F30988022232
:1012200082F3148830483149314A00F044F831489B
:101230003149324A00F03FF831483249324A00F031
:101240003AF832483249334A00F035F832483349E7
:10125000334A00F030F833483349344A00F02BF871
:1012600033483449344A00F026F8344834490022DF
:1012700000F02CF833483449002200F027F83348B6
:101280003349091A082902DB002202604160314A11
:1012900090471F481F49884205D00268043003B4B4
:1012A000904703BCF7E700208646EC46002000216B
:1012B000294A9047FEE7884207D0521A05D00378A2
:1012C00001300B700131013AF9D17047884202D0E8
:1012D00002700130FAE770470000042000E00320AC
:1012E0000000042000000420DC160000080000209C
:1012F0000C000020D0130000D0130000C81600001E
:10130000DC1600000800002008000020C8160000BD
:10131000C8160000C8160000C8160000C816000055
:10132000C8160000C8160000C8160000DA16000033
:10133000E01600000C0000200C0000200C00002033
:101340000C0000200C0000200C0000200C000020ED
:101350000C2000209D1300008D140000FEE7FEE726
:10136000FEE7FEE7FEE7FEE7FEE7FEE7FEE7FEE755
:1013700000F002B8FFF7FCBF0F484FF007018843A9
:1013800085460E4880470E48016841F470010160AF
:10139000BFF34F8FBFF36F8FFFF732BF09480A4982
:1013A0000A4A884207D0521A05D0037801300B70E0
:1013B0000131013AF9D1704700000420F91400000E
:1013C00088ED00E0C816000008000020080000209A
:1013D000074B1B5C1F2B86BF064903F01F034FF012
:1013E000A041012202FA03F3C1F80835704700BF9B
:1013F000C81600000003005008B50020FFF7E8FF02
:101400000120FFF7E5FF0220FFF7E2FFBDE80840FB
:101410000320FFF7DDBF00000A4B185C1F288ABFBE
:10142000094B4FF0A04300F01F00D3F80425012121
:10143000814021EA02000A40C3F80805C3F80C25E0
:10144000704700BFC816000000030050C20710B567
:1014500004460CD54FF0A0430322C3F83427C3F849
:101460003827C3F83C27C3F84027FFF7C5FFA30779
:101470000AD54FF0A0430C22C3F82C27C3F830271D
:10148000C3F86027C3F8642710BD000070B50120C1
:10149000094DFFF7DBFF45F0010500242046FFF76B
:1014A000BBFF4FF4FA764FF47A40A847013EFAD1D9
:1014B0000134042CF2D1F0E7D0160000034B186879
:1014C000A0F1080358425841704700BF3001001096
:1014D000064B1B68082B06D1054B1B68032B02D853
:1014E000044AD05C70470020704700BF30010010F4
:1014F00034010010D616000008B5FFF7DFFF40B139
:101500004FF080430022C3F80C21C3F81021C3F828
:101510003825FFF7D3FF002846D04FF080525E4BAE
:10152000D2F80414C3F82015D2F80814C3F824150F
:10153000D2F80C14C3F82815D2F81014C3F82C15DF
:10154000D2F81414C3F83015D2F81814C3F83415AF
:10155000D2F81C14C3F84015D2F82014C3F844156F
:10156000D2F82414C3F84815D2F82814C3F84C153F
:10157000D2F82C14C3F85015D2F83014C3F854150F
:10158000D2F83414C3F86015D2F83814C3F86415CF
:10159000D2F83C14C3F86815D2F84014C3F86C159F
:1015A000D2F84424C3F87025FFF792FF10B13B4BEB
:1015B0003B4A1A60FFF78CFF18B13A4BFB22C3F885
:1015C0001825FFF785FF48B13749384B0A681B6873
:1015D00022F00F0203F00F0313430B60FFF778FFB5
:1015E00018B1334B4FF400721A60FFF767FF48B130
:1015F0004FF08043D3F80024D20744BF6FF00102BC
:10160000C3F800242B4AD2F8883043F47003C2F8A0
:101610008830BFF34F8FBFF36F8F4FF01023D3F895
:101620000022002A03DBD3F80432002B2FDA224BEE
:101630000122C3F80425D3F80024002AFBD04FF080
:1016400010221221C2F80012D3F80024002AFBD085
:101650004FF010231222C3F80422174B1A46D3F876
:1016600000140029FBD00021C3F80415D2F800347F
:10167000002BFBD0BFF34F8F0E49104BCA6802F40A
:10168000E0621343CB60BFF34F8F00BFFDE70C4B0D
:101690000C4A1A6008BD00BF00C000408C560040D4
:1016A0004881030000F00040E40E004058020010A2
:1016B0004096024000ED00E000E001400400FA0521
:0816C000080000200090D00397
:1016C8000D0E0F10000000000338FDD87047010010
:0216D800000010
:0416DC000090D003A7
:040000030000137571
:00000001FF
